:100000006F30707413000000130000001300000034
:100010001300000013000000130000001300000094
:100020001300000013000000130000001300000084
:08003000130000007300100032
:100038000000000000000000120F0000160F000072
:10004800000000008C3E00000000000000000000DE
:100058008E3E0000903E00000000000000000000FE
:100068008C200000000000000002000000000000DA
:10007800963E0000983E00009A3E00009C3E00001C
:100088009E3E0000A03E0000A23E0000A43E0000EC
:10009800A63E0000A83E0000AA3E0000AC3E0000BC
:1000A800AE3E0000B03E0000B23E0000B43E00008C
:1000B800B63E0000B83E0000BA3E0000BC3E00005C
:1000C800BE3E0000C03E0000C23E0000C43E00002C
:1000D800C63E0000C83E0000CA3E0000CC3E0000FC
:1000E800CE3E0000D03E0000D23E0000D43E0000CC
:1000F800D63E0000D83E0000DA3E0000DC3E00009C
:10010800DE3E00003C3D0000943D0000E43E00005F
:10011800E63E0000E83E0000EA3E0000EC3E00003B
:10012800EE3E0000F03E0000F23E0000F43E00000B
:10013800F63E0000F83E0000FA3E0000FC3E0000DB
:10014800FE3E0000003F0000023F0000043F0000A8
:10015800063F0000083F00000A3F00000C3F000077
:100168000E3F0000103F0000123F0000143F000047
:10017800163F0000183F00001A3F00001C3F000017
:100188001E3F0000203F0000223F0000243F0000E7
:10019800263F0000283F00002A3F00002C3F0000B7
:1001A8002E3F0000303F0000323F0000343F000087
:1001B800363F0000383F00003A3F00003C3F000057
:1001C8003E3F0000403F0000423F0000443F000027
:1001D8000000000000000000000000000000000017
:1001E8000000000000000000000000000000000007
:0801F8000000000000000000FF
:10020000130181F806C216C41AC61EC822CA26CC1B
:100210002ACE2ED032D236D43AD63ED842DA46DC76
:100220004ADECEC0D2C2D6C4DAC6DEC8E2CAE6CC46
:10023000EACEEED0F2D2F6D4FAD6FED8F3220030CF
:1002400096DA9702002083A2220123A02200F32540
:1002500010342EC09305000273A0458003A1818154
:10026000EF30600917030020032303FF032103007D
:10027000824273901234D652739002309240A2425E
:100280003243C2435244E244724582551256A2564A
:100290003257C2575258E25872598649164AA64AEE
:1002A000364BC64B564CE64C764D865D165EA65ECA
:1002B000365FC65F13018107730020301300000012
:1002C00013000000130000001300000013000000E2
:1002D00013000000130000001300000013000000D2
:1002E00013000000130000001300000013000000C2
:1002F00013000000130000001300000013000000B2
:1003000083A28181938202E073900234170100205E
:10031000032181F4024182403243C2435244E24409
:10032000724582551256A2563257C2575258E25859
:1003300072598649164AA64A364BC64B564CE64C6D
:10034000764D865D165EA65E365FC65FD652A1020A
:1003500073900230A24213018107828013000000D3
:100360001300000013000000130000001300000041
:100370001300000013000000130000001300000031
:100380001300000013000000130000001300000021
:100390001300000013000000130000001300000011
:1003A0001300000013000000130000001300000001
:1003B00013000000130000001300000013000000F1
:1003C00013000000130000001300000013000000E1
:1003D00013000000130000001300000013000000D1
:1003E00013000000130000001300000013000000C1
:1003F00013000000130000001300000013000000B1
:10040000F322003093F272FF130380781203B3E2F9
:100410006200711523205500130585FA10C12115BE
:10042000232005009302000063870200711523203A
:100430000500FD12D5BF71150CC1828000000000BF
:1004400000000000000000000000000000000000AC
:10045000000000000000000000000000000000009C
:10046000000000000000000000000000000000008C
:10047000000000000000000000000000000000007C
:10048000000000000000000000000000000000006C
:10049000000000000000000000000000000000005C
:1004A000000000000000000000000000000000004C
:1004B000000000000000000000000000000000003C
:1004C000000000000000000000000000000000002C
:1004D000000000000000000000000000000000001C
:1004E000000000000000397101436EC619A0397187
:1004F00041536AC866CA62CC5ECE19A039710153F5
:100500005AD056D252D44ED64AD826DA22DC06DE4B
:1005100033016140828241114AC026C222C406C60C
:100520008282B24D4101024D924C224CB24B4101AC
:10053000024B924A224AB249410102499244224462
:10054000B240410182803D432A876373C30293779F
:10055000F700BDEFADE5937606FF3D8ABA960CC372
:100560004CC30CC74CC74107E36BD7FE11E2828036
:10057000B306C3408A069702000096966780A600DD
:100580002307B700A306B7002306B700A305B700EB
:100590002305B700A304B7002304B700A303B700E3
:1005A0002303B700A302B7002302B700A301B700DB
:1005B0002301B700A300B7002300B700828093F5A2
:1005C000F50F93968500D58D93960501D58D61B76E
:1005D000939627009702000096968682E78086FA17
:1005E0009680C1171D8F3E96E374C3F8A5B7336795
:1005F000B500FD530D8B79E7B7877F7F9387F7F7BA
:1006000010419441B372F6003363F600BE92B3E238
:1006100062006395720C6318D6065041D441B372E0
:10062000F6003363F600BE92B3E262006396720A8C
:10063000631BD60410459445B372F6003363F6008D
:10064000BE92B3E26200639F7208631ED6025045F9
:10065000D445B372F6003363F600BE92B3E2620093
:10066000639872086311D60210499449B372F60078
:100670003363F600BE92B3E26200639172085105E3
:10068000D105E30FD6F61317060193970601631CF5
:10069000F7001357060193D706013305F74093750A
:1006A000F50F91E982804183C1833305F74093754B
:1006B000F50F91E182801377F70F93F7F70F33056A
:1006C000F740828010219421050585056313D6002B
:1006D00075FA3305D640828011059105E314D6FEE4
:1006E000014582802105A105E31ED6FC01458280DB
:1006F0003105B105E318D6FC014582804105C105ED
:10070000E312D6FC01458280EFF2FFE041118545FE
:100710002145EF30304C37140140C1473EC68D446F
:1007200089474C00130504C07C8226C4EF30501862
:1007300091473EC64C008547130504C07C8226C401
:10074000EF3010174101D5BBEFF2FFDC2A863715D9
:1007500001408945130505C0EF30B022F9BBEFF227
:100760009FDB411185452145EF30D0469147371435
:1007700001403EC685477C824C008D47130504C06E
:100780003EC4EF30F0128545130504C0EF30501E13
:10079000410165B3EFF23FD8D93701457537C1370D
:1007A0007DFD0545EF308068E14401440545693F22
:1007B00001450604513F653711C10504FD1493F44A
:1007C000F40FEDF4054549370145BD3F370580007D
:1007D000218DA5B3EFF23FD4411129466C00EF7093
:1007E000B078B2478387070099E71307F00F937734
:1007F000F50F637CA70083A7418137D5000013055F
:10080000C515CC47EF60801B81473E85410135B35C
:10081000EFF27FD0B70700203707002003274720DB
:1008200083A787203704002013040420998F130521
:1008300005131CC045371C40130745016368F700CA
:10084000311533B5A70013451500C5B90145F5BFEE
:10085000EFF27FCCB707002037070020032787205F
:1008600083A747203704002013040420998F130521
:1008700005131CC085371C40130745016368F7004A
:10088000311533B5A7001345150045B90145F5BF2E
:10089000EFF27FC837D500001305C517EF60106E63
:1008A000056513058538EF20B01E37D50000130508
:1008B0000519EF60B06C1305803EEF20701DB5B9CF
:1008C000EFF2DFC337D9000013054919EF60106B51
:1008D0001305803EEF20D01BB7D90000B7040020DD
:1008E0009385C9191385442E37040020EF601077D3
:1008F0002328A420B70A00201304042137DB0000BA
:100900001C40138ACA20B5C737D500001305851BC4
:10091000EF60D0661305803EEF20901737D90000B6
:100920001305C91CEF6090651305803EEF2050163B
:10093000B7D900009385891D1385442EEF6010728E
:1009400008C0B7DA00001C40B9CF37D50000130546
:10095000451FEF60B062056613060680814513856A
:10096000442E23100A00C5361305803EEF20501296
:10097000C1B613054B1AEF6070601305803EEF207F
:1009800030111305491923100A00EF60305F130579
:10099000803EEF20F00F9385C9191385442EEF6038
:1009A000F06B08C0B1BF13854A1EEF60305D1305C0
:1009B000803EEF20F00D1305C91C23100A00EF60E4
:1009C000F05B1305803EEF20B00C9385891D1385E5
:1009D000442EEF60B06808C0BDB7EFF23FB237D524
:1009E000000013054531EF6070591305803EEF207C
:1009F000300A37D900003704002093054932130527
:100A0000442EB7040020EF60706523A8A420370AA5
:100A1000002093840421B7DA000037DB00009C40FB
:100A20009309CA208DC737D5000013054535EF60FF
:100A3000F05405661306068081451305442E239065
:100A4000090011361305803EEF209004D5B41385BC
:100A50000A33EF60B0521305803EEF207003130598
:100A60004B3423900900EF6070511305803EEF2056
:100A70003002930549321305442EEF60305E88C082
:100A800079BFEFF2DFA637D9000013054936EF60D2
:100A9000F04E1305803EEF20A07F37DA00003704C8
:100AA00000209305CA3A1305442EB7040020EF60D6
:100AB000F05A23A8A420B70A00209384042137DB2E
:100AC00000009C409389CA20DDC337D50000130580
:100AD000C53D0569EF60904A130909804A86814542
:100AE0001305442E23900900B93C1305803EEF20E6
:100AF000207A37DA000013058A3FEF60304813058B
:100B0000803EEF20E078B7DA000093858A41130534
:100B1000442EEF60B05488C0B7DB000037DC000023
:100B20009C4095E393858B421305442EEF60105350
:100B30002A8B88C04A8681451305442E23900900DC
:100B4000193463000B0637D5000013058543EF60A9
:100B5000F04205661306068081451305442E239056
:100B60000900D5321305803EEF2080726DBA13055F
:100B70000B3CEF60B0401305803EEF206071130521
:100B8000493623900900EF60703F1305803EEF2047
:100B900020709305CA3A1305442EEF60304C88C08C
:100BA0000DB713058C44EF60703D1305803EEF20B8
:100BB000206E13058A3FEF60703C93858A411305D0
:100BC000442EEF60B04988C04A8681451305442E03
:100BD000239009008D3AA9B7EFF25F9237D9000050
:100BE00013058945EF6090391305007DEF20406AB9
:100BF000B7D9000037040020938549491305442ED6
:100C0000B7040020EF60904523A8A420B70A002075
:100C10009384042137DB00009C40138ACA209DC7BF
:100C200037D500001305854BEF6050350566130678
:100C3000068081451305442E23100A00EFF0BF9073
:100C40001305803EEF20C0646FF09F8E13054B4A62
:100C5000EF60D0321305803EEF2080631305894595
:100C600023100A00EF6090311305803EEF204062B0
:100C7000938549491305442EEF60503E88C069BFF3
:100C8000EFF27F892E86AA8537D50000130545200F
:100C9000EF60D01C6FF07F8AEFF2FF87B70400206F
:100CA00061712A8926848387442E638C0718B7D5FF
:100CB00000009385C52A1385442EEF60303A0DC994
:100CC000814713062002930640063307F500030709
:100CD00057006304C7006395D714181B37D500006D
:100CE000BA970C081305052B238007E6EF60101751
:100CF000B7D500009385052C1305442EEF60103600
:100D000005CD180881479305200213064006B30657
:100D1000F500838676006385B60005076397C710E4
:100D2000181B37D50000BA97930561071305852C6A
:100D3000238307ECEF609012B7D500009385852DD3
:100D40001305442EEF60903139C51808814793058B
:100D5000C0021308200213064006B306F50083867E
:100D600086006387B6006385060105076393C70C99
:100D7000181BBA976C00E809238607F2EF70E07C35
:100D8000EF50B029A30AA10637D50000EC091305DE
:100D9000052EEF60B00CB7D500009385452F1305E5
:100DA000442EEF60B02B39C5180881479305C00267
:100DB0001308200213064006B306F500838696004A
:100DC0006387B6006385060105076398C706181B8D
:100DD000BA976C008802238807F8EF700077EF500D
:100DE000D023A30DA10C37D500008C021305C52F0D
:100DF000EF60D0060566B707002013060680814520
:100E00001305442E23960720EFF0EFF30C0813068A
:100E1000001A4A85EF50B0414A855D616FF0EFF1ED
:100E20000C08BE9598A185074DB58507A302D70686
:100E3000F9BD8507A305D70C0DB78507A307D71202
:100E4000A5BF1305401FEF20A044B1BDEFF2AFECEA
:100E500083A7418137D500001305C550CC47EF501B
:100E6000F0350545EF50B02723220500230005008B
:100E70008280EFF24FEA41112A841305001A2EC630
:100E8000EF509036B24511E1D1371306001AAA840B
:100E9000EF50F0395C4023AC041889EB44C01C20AF
:100EA00085071CA041016FF04FE9BA8703A7871996
:100EB0006DFF23AC9718E5B7EFF24FE440411DC832
:100EC0002E89AA848149CA852285EFF04FF28327B3
:100ED00084191DE163960902DCC02285EF50703150
:100EE0009C2037D50000CA85FD179CA01305C54C72
:100EF000EF60C0766FF0CFE3A28991C73E84E1B77F
:100F000023ACF918D9BF37D50000CA851305C54EE3
:100F1000C5B77300203001A0EFF2EFDFEF10801AA9
:100F2000FD2BB7070020B7D50000371500009387C9
:100F300087220947814613060010938545561305FD
:100F4000E5F7EF10904BB7070020B7D50000371535
:100F500000000947814613060010938505579387C3
:100F6000C72113058527EF105049B707002003A5B7
:100F7000C722EF10D068EF1040166FF00FDCEFF2D1
:100F8000EFD7370400204111370900208549B70405
:100F90000020130AF03F1304442E0325092C7D562C
:100FA0009305F100EF104073E31935FF83D7C42098
:100FB000E365FAFE988793861700A2972396D420BC
:100FC00098A3E1BFEFF22FD2130101CC3709002023
:100FD00037040020B709002037DA0000B71A0000F4
:100FE000370B0020B70B0020370C0020894C0D4D2B
:100FF000914D8544EF50E014230BA92C8347692DB4
:1010000093F7F70F638A970F63EFFC0CE39497FE57
:10101000EF0000769305CA57938749210947814617
:101020001306001013850A1BEF10303D03258B2A91
:10103000FD55EF10D000E31B95FA03A54B2C7D5610
:101040000C13EF10606963169504B7D50000938503
:101050008558081335311305007DEF2060230A857C
:1010600025391306001A8A850813EF50501CB7075C
:10107000002003A5872C81467D560C13EF10C03845
:10108000B707002003A5C72A814601468145EF1016
:10109000A0371306001A0C130A85EF5050190A8561
:1010A000EF00007B1305803EEF20801E03250C2BF4
:1010B000814601468145EF1020350C131306001AB6
:1010C0000A85EF50D0168A85130504225D33B707D1
:1010D000002003A5472BFD55EF1060768547E317E9
:1010E000F5F0352921B7E38EA7FFE395B7F1130596
:1010F0000422EF00D016DDBDEF00607F9387492109
:1011000009478146130600109305CA5713850A1B29
:10111000EF10B02E03258B2AFD55EF104072854746
:10112000AA84E315F5EC03A54B2C7D560C13EF10A8
:10113000A05A63169504B7D5000093858558081307
:1011400081361305007DEF20A0140A85B136130601
:10115000001A8A850813EF50900DB707002003A5E9
:10116000872C81467D560C13EF10002AB70700200C
:1011700003A5872B814601468145EF10E0280C131B
:101180001306001A0A85EF50900A0A85EF00300412
:101190001305803EEF20C00F03250C2B814601462E
:1011A0008145EF1060260C1313050422313305B777
:1011B000EFF2CFB437440140617113040480B70AE1
:1011C000002037390020370A0020B7090020B70473
:1011D000002085452285EF30602F03A5CA2B7D5660
:1011E0009305F100EF10404F8547E314F5FEEF50F3
:1011F000207E98873A951C318D8B85C783C7442AFA
:10120000FD4663E0F60283C7442A93F7F70F9386FF
:10121000170093F6F60F2382D42A9306C94DB6978A
:1012200098A3A947E317F7FA9305C94D130640069B
:101230000808EF60606003258A2A814601468145DF
:10124000230A0106EF10401C03A5492C81460C0817
:101250007D56EF10601B1306000281451305C94D32
:101260002382042AEFF02FAE22858145EF3000263D
:101270000145EF10D038B1BFEFF2EFA9EFF04FE129
:10128000EFF00FE4EFF06FF5EFF0AFFFEFF0DF946A
:10129000B7070020B7D500003715000093878721D6
:1012A000094781461306002093850559130545FC1F
:1012B000EF10B014B7070020B7D5000037150000B5
:1012C00009478146130600109385C5599387072364
:1012D0001305852EEF107012B707002003A5C72154
:1012E000EF10F0316FF06FA5EFF26FA0130101CC9A
:1012F000EFF08FC137E4E400EFF0CFC91304F41B23
:10130000370B0020B70B002037090020B70400205E
:10131000B7090020EFF00FC8E36EA4FE0325CB2A27
:10132000FD55054AEF10A051AA8A631A4505032509
:10133000892C7D560C13EF10203A2A8AE31C55FDA8
:101340001306001A0C130A85EF50606E0A85EFF041
:101350002FCC11ED03A5092BFD55EF10404E63185E
:101360004501EF00500C1305803EEF10707203A58D
:10137000442B814601468145EF10000961BF03A55A
:101380008B2BFD55EF10A04BAA8AE31545F90325D9
:10139000892C7D560C13EF1020342A8AE31C55F754
:1013A0001306001A0C130A85EF5060680A85EFF0E7
:1013B0002FCA45B7EFF22F960D4681450545EF0040
:1013C000F07DB704002023A4A42A0D4681450545DD
:1013D000EF00D07C370400202326A42A0D46814547
:1013E0000545EF00B07BB707002023A8A72A0D46CC
:1013F00081450545EF00907AB707002023AAA72A68
:101400000D4681450545EF007079B707002023ACF4
:10141000A72A83A7842A81C78327C42A99E737D5B7
:10142000000013058552EF606023014685451305D2
:101430000002EF00B07637090020232EA92A0146CA
:10144000854513050040EF007075B704002023A008
:10145000A42C01469305001A0545EF0030743704AB
:1014600000202322A42C01469305001A0545EF0015
:10147000F072B707002023A4A72C8327C92B81CBA8
:1014800083A7042C89C78327442C91C301E937D44F
:10149000000013054454EF60601CE5BF37050020D1
:1014A00013050522EFF05F9CB7070020B7D50000B9
:1014B000371500009387C7220547814613060010A1
:1014C00093858555130585F1EF102073EF1050209B
:1014D0006FF0AF86EFF22F841145EF20304B1305EC
:1014E0000009EF20501037140140EF206071EF40E9
:1014F0001042EF300009A16513050480EF20304849
:1015000013054006EF20901613050480A165EF2017
:10151000D046EF30A02A793D01456FF00F82EFE20F
:101520009FFF0145EF3020262945EF300021B70706
:1015300000207D57239AE72C216713070743930662
:10154000801C1306802FE14513058002EF40701BBD
:101550009306801C5146E1455145EF40902093068B
:10156000C01D1306802F9305C01D13058002EF4098
:10157000501F91461306802F914513058002EF40BE
:10158000501E9306801C1306C030E1451305C03081
:10159000EF40301D9306801C1306802FE145130594
:1015A0008002EF4030245146E14513058002EF40B0
:1015B000102751469305801C13058002EF4030260A
:1015C00051469305801C1305802FEF40502551464E
:1015D000E1451305802FEF409024B7D70000938793
:1015E000075F13070002930600021306001293051B
:1015F00080021305A00FEF40300A316413078461A5
:101600009306E0111306E0109305600A1305C0036A
:10161000EF40300F130784619306E0111306901F0B
:101620009305600A13057012EF40B00D1307846133
:101630009306E0111306402E9305600A130520213E
:10164000EF40300C130784619306F01A1306E01084
:10165000930570131305C003EF40B00A13078461AC
:101660009306F01A1306901F93057013130570125A
:10167000EF403009130784619306F01A1306402ED9
:101680009305701313052021EF40B007B7D7000072
:1016900093874760130700029306000213060005B4
:1016A0009305800C13054006EF40007FB7D700007C
:1016B0009387C76013070002930600021306000811
:1016C0009305800C13050014EF40007DB7D7000090
:1016D0009387876113070002930600021306000632
:1016E0009305800C1305A023EF40007BB7D70000C3
:1016F000938707621307000293060002130600098E
:101700009305901513054006EF400079B7D7000008
:101710009387C762130700029306000213060007AF
:101720009305101813052008EF400077B7D7000085
:10173000938747631307000293060002130600060F
:101740009305901513050014EF400075B7D70000FE
:101750009387C76313070002930600021306000372
:10176000930590151305A023EF4000736FE0FFDC95
:10177000EFE27FDA0145EF3000012945EF20F07BF1
:10178000B70700207D57239AE72C216713070743EB
:101790009306801C1306802FE14513058002EF405D
:1017A00040769306801C5146E1455145EF40607BF1
:1017B0009306C01D1306802F9305C01D13058002DC
:1017C000EF40207A91461306802F91451305800241
:1017D000EF4020799306801C1306C030E1451305C5
:1017E000C030EF4000789306801C1306802FE1453F
:1017F00013058002EF40007F5146E145130580024A
:10180000EF40F00151469305801C13058002EF4024
:10181000100151469305801C1305802FEF403000C6
:101820005146E1451305802FEF40607FB7D7000098
:101830009387075B13070002930600021306000B51
:101840009305C00D1305A00FEF4000656FE0FFCEBC
:10185000EFE27FCCB16419712A84138504C4EF20B0
:1018600090722945EF20706D138784619306000FF5
:1018700013068025930580071305800CEF406068F0
:10188000930764063E853EC6EF50F079B2471316C3
:1018900045004206130700024182930600029305A9
:1018A000400B1305800CEF40205F8346540637D66B
:1018B00000001306865A930540066808EF50F06F43
:1018C0007C08130700029306000213060005930527
:1018D000800C1305800CEF40205C0565130505FAAC
:1018E000EF20C058EFF0BFC309616FE01FC5EFE202
:1018F0009FC20145EF2030692945EF201064B707EA
:1019000000207D57239AE72C21671307074393068E
:10191000801C1306802FE14513058002EF40605EB6
:101920009306801C5146E1455145EF408063930684
:10193000C01D1306802F9305C01D13058002EF40C4
:10194000406291461306802F914513058002EF40B7
:1019500040619306801C1306C030E1451305C0307A
:10196000EF4020609306801C1306802FE14513058D
:101970008002EF4020675146E14513058002EF40A9
:10198000006A51469305801C13058002EF402069D0
:1019900051469305801C1305802FEF404068514647
:1019A000E1451305802FEF408067B7D7000093878C
:1019B000075B13070002930600021306000B930552
:1019C00080021305A00FEF40204D6FE01FB7EFE23C
:1019D0009FB42A84416519717D15EF20D05A29459D
:1019E000EF20B0553167130787619306000F130688
:1019F0008025930580071305800CEF4080509307E6
:101A000064063E853EC6EF501062B247131645008D
:101A10004206130700024182930600029305400B21
:101A20001305800CEF4040478346540637D600002C
:101A30001306865A930540066808EF5010587C0834
:101A40001307000293060002130600059305800C9D
:101A50001305800CEF40404409616FE01FAEEFE2D8
:101A60001FA911710349050040410145EF20B05104
:101A70002945EF20904C37DB0000B7D9000037DA5A
:101A80000000B7DA0000A94763E7270163110918CE
:101A900011616FE05FA993041009930BF01E45C814
:101AA000930664061306CB5C930500100A85EF507D
:101AB000D0500A85EF5030571316450042068A87EA
:101AC00013070002A6854182930600021305200336
:101AD000EF40803C834644191386895D93050010CE
:101AE0000A85EF50904D0A85EF50F05313164500CC
:101AF000420693070A5E13070002A68541829306F9
:101B000000021305A00FEF4020399306C40C138682
:101B10004A5E930500100A85EF50304A0A85EF505F
:101B2000905013164500A685938434024206C204E1
:101B300041828A8713070002930600021305401FA3
:101B4000C180EF40603503248419E39A74F5591974
:101B50001379F90F0DBFB384490393066406130686
:101B6000CC5C930500100A85EF5030450A85EF5094
:101B7000904B1316450042069384E406C204C180CC
:101B80008A8713070002418293060002A685130587
:101B90002003EF4060308346441913868A5D930525
:101BA00000100A85EF5070410A85EF50D047131698
:101BB0004500420693070B5E13070002418293061D
:101BC0000002A6851305A00FEF40002D9306C40C5C
:101BD00013864B5E930500100A85EF50103E0A8570
:101BE000EF50704413164500420641828A8713075E
:101BF000000293060002A6851305401F8509EF40E9
:101C0000A02903248419E34539E931F451B5854904
:101C100037DC0000130A3002B7DA000037DB0000BF
:101C2000B7DB0000DDB7EFE21F8F41657D15EF20C8
:101C300090352945EF20703031671307876193068F
:101C4000000F13068025930580071305800CEF40D5
:101C5000402BB7D700009387C75B1307000293069A
:101C600000021306000D9305400B1305800CEF4096
:101C7000A0220565130505FAEF20401FEFF03F8A0B
:101C80006FE0BF8BB71702409843B706FFF84111CA
:101C90001367170098C3D84337060200758FD8C35F
:101CA0009843B706F7FEFD16758F98C39843B7069D
:101CB000FCFFFD16758F98C3D843B70681FFFD164C
:101CC000758FD8C39843B70600ECFD16758F98C37F
:101CD0003707FF0098C723A6070202C402C698432D
:101CE000C166558F98C3B716024005679C42F18FB5
:101CF0003EC6A24785073EC4B24781E7A247E397A5
:101D0000E7FEB71702409C431397E70063560706A8
:101D100085473EC632478547631EF704B717024022
:101D2000D843B706C1FFFD16D8C3D843D8C3D8439C
:101D300013670740D8C3D843758FD8C3D843C1664B
:101D4000558FD8C39843B7060001558F98C3984361
:101D500093166700E3DD06FED843B7160240719B79
:101D6000D8C3D84313672700D8C32147DC42B18BBF
:101D7000E39EE7FE4101828002C669BFB7070020EB
:101D80009387C7249843636FA702D043B386C700E5
:101D90006316D50054413E85B296D4C35041B30674
:101DA000C500631CD700B706002083A64623630640
:101DB000D70054431843B29654C118C16303F500C9
:101DC00088C38280BA877DBFEFE24FF341112AC6F4
:101DD000EF102019B706002083A7462337060020FE
:101DE00093864623130686233245A9EF3717002032
:101DF000930747AE93F5F700130747AE81C51387E6
:101E0000F700419BB70500209385C52423A2050058
:101E100098C189659385057FAE97C19B23A2070072
:101E200023A00700B385E7409CC21CC3B70700206E
:101E300023A0B724B707002023AEB722B70700803E
:101E40004CC31CC2032A0600B377AA0085E393079C
:101E5000F5FF3957636CF7009307050113F7F70097
:101E600041C313F707FF410763EBE706814489A0ED
:101E700022872E8461A058C15CC009375840B7063C
:101E80000020938606249042B307E94023A0F9007E
:101E900063F3C7009CC2B70700203367EA0093874B
:101EA000472458C09843C10423200400050798C361
:101EB000EF10802793F7F400D1CBA16793870780B9
:101EC0007390073037D6000037D50000130606643C
:101ED0009305001113050568EF50407801A0BA87FB
:101EE000370700200329C7239309C723E360F9F8C4
:101EF000370700200324C7241307C7245040637406
:101F0000F6000C40B5F59442E38286F61440044393
:101F100014C33307F64093060002E3F1E6F63305F7
:101F2000F4009376F500A1DAA16793870780739098
:101F3000073037D6000037D5000013060664930536
:101F4000F00C13050568EF50607101A02685410172
:101F50006FE00FDE5DC1EFE20FDCB7070020032763
:101F600045FF83A787232A84B376F7009DE2A16704
:101F7000938707807390073037D6000037D500006D
:101F8000130606649305401213050568EF50006DB3
:101F900001A0832605FF9DC2A167938707807390E8
:101FA000073037D6000037D50000130606649305C6
:101FB000501213050568EF50606A01A093C7F7FF40
:101FC000F98F232AF5FEEF00D079B7070020938719
:101FD000C7239443032744FF130504FF369798C390
:101FE000EFF0DFD9B70700209387872498430507D0
:101FF00098C3EF1060136FE04FD482808280EFE2CD
:102000008FD1411102C6F32750303EC6B2470D476B
:102010008D8B6384E702A1679387078073900730F5
:1020200037D6000037D500001306466A9305600BCB
:1020300013050568EF50806201A0B7070120938760
:102040000700BD8B9DC3A1679387078073900730FE
:1020500037D6000037D500001306466A9305B00B4B
:1020600013050568EF50805F01A0493FB7E700E026
:10207000056723A0E710116723A0E71023A20180C2
:10208000EFE00FA8014541016FE02FCB7311013440
:10209000A1679387078073900730B7F700E023A20A
:1020A0000700EF00B06D11C5B7E700E0116723A08E
:1020B000E720A167938787887390073073110134F5
:1020C00073002030A1679387078073900730938750
:1020D00041809843050798C38280138741801C4341
:1020E0008DE7EFE24FC3A1679387078073900730B6
:1020F00037D6000037D500001306466A9305201036
:1021000013050568EF50805501A0FD171CC391E72A
:10211000A1679387878873900730828021651305B4
:102120000580731505308280731005308280930717
:1021300085007D575CC118C55CC51CC923200500FE
:1021400082802328050082805C419847DCC198C5C5
:1021500098474CC38CC71C4188C985071CC1828025
:102160009841FD5693078500631ED7001C49D8434C
:10217000D8C10CC79CC5CCC31C4188C985071CC1EC
:102180008280B687D4439042E37DC7FECDB75441E9
:1021900018451C4998C654C3D4436393A600D8C3BA
:1021A0009843232805007D1798C388438280EFE277
:1021B0008FB641112AC639373245005D393F133594
:1021C000140041016FE06FB7EFE2EFB432893041A4
:1021D000045D2A8409EE1C41014591E70844EF1093
:1021E000205123240400850404DC6FE00FB5631044
:1021F00009024841EF40B0035C4038400145BA97BE
:1022000018445CC0E3E1E7FE1C405CC0E9BF484500
:10221000EF40F0013C4058441440B307F0403E9773
:1022200058C46375D7001844BA975CC48947014500
:10223000E31BF9FACDD8FD147DB7304115C2EFE2AA
:102240008FAD58451445AA87329758C56364D700A7
:10225000184158C52E85CC47EF40607D6FE0EFAD4B
:102260008280EFE24FAB2A84EFF0DFE58344540431
:1022700013094402E204E18463489002FD57A3027B
:10228000F404EFF09FE5EFF0FFE383444404130907
:102290000401E204E18463459002FD572302F40443
:1022A000EFF0BFE36FE06FA95C50E9DB4A85EF1008
:1022B000001A19C1EF106036FD14E204E1846DBF0D
:1022C0001C48E1DF4A85EF10801819C1EF10E03497
:1022D000FD14E204E184C1B7EFE2EFA341111DE177
:1022E000A167938707807390073037D6000037D5F2
:1022F00000001306866E9305001113050568EF5064
:10230000E03501A05C5D2EC62A84BDC73841B3B755
:10231000E702BDE3EFF01FDB3040585C1440232C94
:102320000402B307E602B24554C03387F600918F2A
:10233000B6975CC4FD572302F40418C4A302F40446
:102340009DE11C4899CB13050401EF10401011C505
:10235000B7E700E0116723A0E720EFF01FD805459D
:1023600041016FE08F9D13050401EFF05FDC130561
:102370004402EFF0DFDBD5B7A16793870780739046
:10238000073037D6000037D500001306866E930558
:10239000501413050568EF50602C01A0EFE2AF97D1
:1023A000411129C1B3B7A502AA848DEF3305B50247
:1023B000930770FB63E8A702130585042EC6EFF0B0
:1023C000BFA02A8401CDB245AA8799C1930785048D
:1023D0002CC01CC044DC85452285FD3D2285410181
:1023E0006FE0AF95A167938707807390073037D66A
:1023F000000037D500001306866E9305601C130598
:102400000568EF50A02501A0EFE26F8E011132C6E2
:102410001DE1A167938707807390073037D60000CE
:1024200037D500001306866E9305E0321305056864
:10243000EF50C02201A02A842E89B6848DE53C414C
:102440009DC3A167938707807390073037D600003C
:1024500037D500001306866E9305F0321305056824
:10246000EF50C01F01A089476398F402585C85476C
:102470006304F702A167938707807390073037D60C
:10248000000037D500001306866E93050033130550
:102490000568EF50A01C01A0EF10E01815E5B24749
:1024A000014C85C7A167938707807390073037D6A3
:1024B000000037D500001306866E930530331305F0
:1024C0000568EF50A01901A0014C094BFD59930B71
:1024D000040137EA00E0916AA5A8B24789E7EFF066
:1024E000DFBF014555A063150C002808EF10E0047C
:1024F000EFF0BFBEEF00F026EFF0DFBC83474404EF
:10250000E207E187639437012302040483475404FC
:10251000E207E18763943701A3020404EFF0FFBBF5
:102520006C002808EF10C00235EDEFF0BFB9185C61
:102530005C5C631EF704EFF05FBAB2455E85EF00A6
:1025400030652285EFF0FFD1EF00103E29C9054C20
:10255000EFF05FB7185C5C5C6364F700E39F64F7BF
:102560002686CA852285EFF03FC65C5089C71305D1
:102570004402EF00D06D11C5B7E700E0116723A05A
:10258000E720EFF09FB5054505616FD0DFF9EFF06B
:10259000DFB42285EFF0FFCCEF0010394DBF2320D0
:1025A0005A2175B72285EFF0DFCBEF00F03715BF6A
:1025B000EFD2DFF441111DE1A1679387078073908B
:1025C000073037D6000037D500001306866E930516
:1025D000204013050568EF50600801A02A84B289E5
:1025E0008DE53C419DC3A1679387078073900730B9
:1025F00037D6000037D500001306866E93053040AD
:1026000013050568EF50800501A089476398F6021D
:10261000585C85476304F702A1679387078073902E
:10262000073037D6000037D500001306866E9305B5
:10263000404013050568EF50600201A036C62EC465
:10264000EFF0DFAD185C5C5C2A8AA245B246636697
:10265000F700894781446393F602834454041C5C69
:102660003686228513998401EFF01FB613598941EC
:10267000FD576317F9025C5089EB85445285EFF0F2
:10268000BFAA268541016FD0BFEA13054402EF00BF
:10269000105C65D5E38309FE854723A0F900F1BFEF
:1026A0009307F0076314F902A1679387078073907B
:1026B000073037D6000037D500001306866E930525
:1026C000D04813050568EF40707901A08504E20445
:1026D000E184A302940455B7EFD27FE1011132C621
:1026E0001DE1A167938707807390073037D60000FC
:1026F00037D500001306866E93051055130505683F
:10270000EF40D07501A02A84AE898DE53C419DC380
:10271000A167938707807390073037D6000037D5BD
:1027200000001306866E9305505513050568EF40AB
:10273000F07201A0EF00306F15E5B247014985C77F
:10274000A167938707807390073037D6000037D58D
:1027500000001306866E9305A05513050568EF402B
:10276000F06F01A001497D5A930A440237EB00E063
:10277000916B95A8B24789E7EFF03F96014569A8AC
:10278000631509002808EF00505BEFF01F95EF007C
:10279000407DEFF03F9383474404E207E187639471
:1027A00047012302040483475404E207E18763944A
:1027B0004701A3020404EFF05F926C002808EF00C9
:1027C000305925E52285EFF09F9E31C9B2455685E7
:1027D000EF00103C2285EFF0DFA8EF00F01419E1C4
:1027E00023207B210549EFF0FF8D045CC1D4CE8509
:1027F0002285FD14EFF07FA404DC1C4899CB13055F
:102800000401EF00D04411C5B7E700E0116723A031
:10281000E720EFF09F8C054505616FD0DFD0228562
:10282000EFF03FA4EF00501075BF2285EFF07FA3BB
:10283000EF00900F2285EFF09F974DD581B7EFD233
:10284000FFCB01112EC61DE1A1679387078073900E
:10285000073037D6000037D500001306866E930583
:10286000305E13050568EF40705F01A03C412A848B
:102870009DC3A167938707807390073037D6000008
:1028800037D500001306866E9305705E1305056844
:10289000EF40D05C01A0EF0010590DE5B2479DC399
:1028A000A167938707807390073037D6000037D52C
:1028B00000001306866E9305C05E13050568EF40A1
:1028C000F05901A081440149FD59130A4402B7EAB5
:1028D00000E0116B6DA0B2479DE79DC0A167938793
:1028E00007807390073037D6000037D500001306F5
:1028F000866E9305206313050568EF40305601A0EE
:10290000EFF0AFFD7DA0631509002808EF00F0424D
:10291000EFF0AFFCB925EFF0EFFA83474404E2078C
:10292000E187639437012302040483475404E207D8
:10293000E18763943701A3020404EFF00FFA6C00FF
:102940002808EF00F04041E12285EFF05F8635C5B1
:102950001C4089EBEFF00FF70844EF00904EAA847B
:10296000EFF0AFF7B2455285EF0090222285EFF0ED
:102970005F8FEF00607B19E123A06A210549EFF02A
:102980006FF41C5CA9DBFD171CDC1C4081E7EF0029
:10299000307108C41C4899CB13050401EF00302B9B
:1029A00011C5B7E700E0116723A0E720EFF0EFF2D1
:1029B0008544268505616FD0BFB72285EFF07F8AF9
:1029C000EF00807665BF2285EFF0BF89EF00C0750C
:1029D0002285EFF0CFFD5DD1E9DCEFF0AFEE5C508A
:1029E000814589C71C58BD459C439D8D0844814441
:1029F000EF00B05CEFF06FEE6DBF15E5EFD2BFB149
:102A0000A167938707807390073037D600008565EC
:102A100037D500001306866E938585AC13050568CF
:102A2000EF40D04301A09DCD373600209306462EBF
:102A3000814701471306462E214883A84600639824
:102A4000A80093173700B2978CC3C8C321A891E799
:102A500083A8060063930800B6870507A106E31E56
:102A600007FDFDF38280EFD21FAB41112A842EC6F1
:102A700032C4EFF02FE5834744047D572246E20736
:102A8000E187B2456394E7002302040483475404BA
:102A90007D57E207E1876394E700A302040432C68E
:102AA0002EC4EFF08FE31C5CA245324689E7130584
:102AB0004402EF0070122285EFF0AFFA41016FD0AF
:102AC000DFA737070020130787251C439443B70768
:102AD00000209387872781E67D5798C3828018431B
:102AE00058471843DDBFEFD27FA137090020B70751
:102AF00000209304492583A987282A849C40884084
:102B00004111A388070411052EC6EFF04FE87D5749
:102B100093074925B245631CE40295C9B7370020E5
:102B20009387C7489440D84398C610479440D0C66E
:102B300094401047910654C29440910614C798409F
:102B40005CCB9843050798C341016FD07F9E9843A3
:102B50004E9440C3637B3401370700200325C7250B
:102B60008C439105EFF0CFDFC5B737070020032571
:102B700087258C439105EFF0AFDEB70700209387E0
:102B800087279843E372E4FC80C37DBFEFD21F9791
:102B900037340020B70900201304044A370A002004
:102BA000B73A0020938449269C4089EF93874A32A4
:102BB00098438547E3F8E7FEB7E700E0116723A0F5
:102BC000E720CDB7EFF00FD05C4403A9C700130591
:102BD0004900EFF0CFDB13070A261C43FD171CC387
:102BE0009C40FD179CC0EFF04FCF03250903EFF089
:102BF0006FB64A85EFF00FB675B7EFD25F8F131936
:102C00002600AA8A4A852E8A368BBA8BBE89EFF0B7
:102C1000AF9B1DC1AA8413054005EFF0EF9A2A84EB
:102C200009C904D98147C146631A0A00230A05026B
:102C300025A02685EFF00FB27D5565A23307FA0077
:102C4000030707003306F400230AE60201C78507DD
:102C5000E396D7FEA3010404B94763F47703A167A1
:102C6000938707807390073037D6000037D5000070
:102C7000130686719305703913050568EF40101E21
:102C800001A0130A440052852326740323227405ED
:102C900023240404EFF0EFCA13058401EFF06FCA98
:102CA0003D471305C9FF33077741269500C818CC67
:102CB00040D023060404A306040423070404A30746
:102CC000040423080404A30804045A86D685419901
:102CD000EFD00FF308C06384090023A08900EFF050
:102CE0006FBEB7070020938707269843B7040020DC
:102CF000B7390020050798C31387442518439384E8
:102D00004425138949326310070E80C098438547D4
:102D10006316F70693894932930AC9124E85D10981
:102D2000EFF0EFC0E39C3AFF37350020930A0545EA
:102D300013050545EFF0AFBF373500209309454631
:102D400013054546EFF0AFBE373500201305854724
:102D5000EFF0EFBD373500201305054AEFF02FBD2A
:102D6000373500201305C548EFF06FBCB7070020CA
:102D700023AC5725B707002023AE3725B70700201F
:102D80009387C7269843050798C337070020130782
:102D900007275C54144363F3F6001CC35147B38701
:102DA000E702CA97D843144718C454C4144723A24F
:102DB00046012324470198435CC8050798C3EFF0F8
:102DC000CFB1B707002083A74728054599CB9C4082
:102DD000D8575C546377F700B7E700E0116723A08A
:102DE000E7206FD04FF4B707002083A74728D9F713
:102DF0009C40D8575C54E3E3E7F880C041B7EFD27A
:102E00008FF12A84B7040020EFF0CFAB93844425E0
:102E100011E08040130944004A85EFF04FB71C547D
:102E200089C713058401EFF08FB6B7070020938799
:102E3000C7269843050798C39C40639A8706373591
:102E40000020CA851305054AEFF00FB0B707002030
:102E5000938747269843050798C3EFF00FA89C4037
:102E6000638887000858EFF0EF8E2285EFF08F8E91
:102E7000B707002083A74728B1CB9C4063988704FD
:102E8000B707002083A787268DCFA1679387078088
:102E90007390073037D6000037D5000013068671CF
:102EA0009305C04D13050568EF40407B01A0B707AF
:102EB00000209387072698437D1798C3EFF07FC0C3
:102EC00069BFB7E700E0116723A0E7206FD0EFE606
:102ED000EFD26FE4B7070020B7D500003735000008
:102EE0009387472701478146130600089385857419
:102EF0001305C5B8EFF07FD00544631E8502EF00CF
:102F0000304A631A8502A167938707807390073060
:102F1000B70700207D5723ACE726B707002023A280
:102F2000A728B707002023A40728EFF04F8D83A719
:102F300081806FD08FE0FD57E31BF5FEA16793877B
:102F400007807390073037D60000856537D50000BD
:102F5000130686719385058413050568EF4000709C
:102F600001A0B7070020938787269843050798C3D9
:102F70008280B707002003A587288280B70700203A
:102F800083A7872663990718EFD2EFD8B7070020E9
:102F9000938787288043050480C321ECB70700206E
:102FA000938787259843184305C7A16793870780B0
:102FB0007390073037D60000856537D500001306BB
:102FC0008671938575AC13050568EF40206901A0F3
:102FD000370700201307C7259443104390C3B70752
:102FE000002014C39387C7279843050798C3EFF0C1
:102FF0005FAD37060020930786279C4337370020B4
:10300000B705002013068627130747329385452509
:1030100001456375F4029C41D146DC57B387D70262
:103020003E971843854763F3E7000545B70700203F
:1030300083A7C72891C305456FD02FD0370E002036
:10304000B70E0020514F93078E259443944281E69A
:10305000FD571CC2C9B79C43DC47DC47D4436374AB
:10306000D40014C24DBF83A8870003A8C700D44B67
:103070001383470023A408012322180183A84600D4
:103080006394680023A2060103A8060023AA070090
:103090007D1823A00601945795CA03A8C70183A8E9
:1030A000070283AF46002324180183A8070223A246
:1030B00008011388870163940F0123A2160103A856
:1030C000060023A407027D1823A0060193860E277D
:1030D00003A8C70283A8060063F4080123A0060121
:1030E000B306E803BA9683A8460083AF880023A4FA
:1030F000170123A6F70183AF880023A26F0023A442
:103100006800D4CB9C4285079CC29C41DC57E36C91
:10311000F8F205450DBFB7070020938707289843AD
:103120000145050798C38280EFD24FBD37040020C8
:10313000130484261C40411185E7A167938707800B
:103140007390073037D60000856537D50000130629
:1031500086719385358B13050568EF40205001A0DB
:10316000EFE05FF61C40FD171CC01C4089CB0145F9
:103170002AC6EFE09FF6324541016FD06FBBB7071B
:10318000002083A70726E5D7B73600203735002073
:10319000814793868647370F002013054532D14873
:1031A00037030020370E0020854E59A8DC46DC4747
:1031B000CC4F9053985790C503A807022322B8001C
:1031C00003284700938587016313B80050C3104359
:1031D00023A407027D1610C38C47D047D84B138811
:1031E000470090C54CC24C436393050150C3104344
:1031F00023AA07007D1610C313070F27D0570C43CF
:1032000063F3C50010C3330716032A974C4383AFFB
:1032100085008CC723A6F70183AF850023A20F0189
:1032200023A405010C43D8CB85050CC31307432504
:10323000184358576366E6001307CE282320D701AA
:1032400098422DF799C3EFF0DF87B7070020138767
:10325000072804431384072899CC3709002085499F
:10326000EFF0DFD109C59307C92823A03701FD146A
:10327000E5F823200400B707002083A7C728E388C8
:1032800007EEB7E700E0116723A0E7200545CDB5BD
:1032900019E5B7E700E0116723A0E7208280EFD2AD
:1032A0008FA7B707002083A7872641119DC3A16779
:1032B000938707807390073037D6000037D500001A
:1032C000130686719305905413050568EF40003985
:1032D00001A02AC6EFF0FFC832458145EFF0BF805C
:1032E000EFF09FE411E5B7E700E0116723A0E720C6
:1032F00041016FD08FA4B707002003A78726B70727
:1033000000209387C72801C7054798C3828023A060
:103310000700B707002013870727184313860727DE
:10332000B7370020938747325148B3060703B38568
:10333000D700884115C5C841A106BE964841C8C1FD
:103340006314D5005441D4C1D146B306D702B69711
:10335000DC43D447B707002023AAD72418C28280B1
:1033600015E7EFD24F9BA1679387078073900730D3
:1033700037D60000856537D5000013068671938522
:1033800025C013050568EF40602D01A07D1771BFB2
:10339000EFD26F9805E5A167938707807390073098
:1033A00037D60000856537D50000130686719385F2
:1033B000C5C113050568EF40602A01A0B7070020CA
:1033C0002E8483A54725E105EFE09FD98545228519
:1033D000EFF06FF16FD06F96EFD2EF932A8705E58C
:1033E000A167938707807390073037D60000856503
:1033F00037D5000013068671938525C5130505682A
:10340000EF40C02501A0B70700209387472554430C
:103410002E858C4303A88600D4CD8C4323A00503BE
:1034200003A807008C46610823A2050103A8070032
:103430009C43610823A4060198D71C4385071CC33D
:1034400011C27D55B285EFF00FEA6FD00F8F5C454A
:10345000DC4795E7EFD22F8CA167938707807390A5
:10346000073037D60000856537D500001306867112
:10347000938525C813050568EF40401E01A0D04F75
:10348000945398579385870114C6D0C25043631351
:10349000B60054C3144323A40702FD1614C3370710
:1034A000002003278726D45725EF8C47D047D84BD9
:1034B00090C5D04748434CC2938547006313B5007D
:1034C00050C3104323AA07007D1610C337070020FE
:1034D0001307072710436373D60014C3514733867D
:1034E000E602373700201307473232975043084629
:1034F00090C7C8C708464CC10CC6D8CB1C43014571
:1035000085071CC3B707002083A74725DC5763F84E
:10351000D700B7070020054723A6E7280545828086
:10352000373700201307874750430846D0CF88D34A
:1035300008464CC10CC698D7D1B7B707002083A75F
:10354000C7271CC1B707002083A787285CC18280DA
:10355000EFC27FFC411105E5A16793870780739057
:10356000073037D60000856537D500001306867111
:103570009385D5CF13050568EF40400E01A085E582
:10358000A167938707807390073037D60000856561
:1035900037D50000130686719385E5CF13050568BE
:1035A000EF40C00B01A02EC62AC4EFE0BFB1370721
:1035B0000020B70700201307472583A687281C4350
:1035C0002245B24583C7170599CB1C43A38807043E
:1035D0000544EFE09FB0228541016FC01FF69C417A
:1035E0007D570144E387E7FE370600200326C62700
:1035F0000328050058416307C80063E5E60023A0DF
:103600000500F9B73386E640E37BF6FE958FBA975F
:103610009CC1EFF09FF201446DBFB7070020054742
:1036200023A6E7288280B707002083A747280545FF
:1036300081CBB707002003A58726133515000605A3
:1036400082804DC5EFC29FEB3709002093074925C3
:103650009443585513094925D4566373D7081C4D14
:1036600063C8070083270900D457BD47958F1CCD39
:1036700051463307C702B7370020938647329384F9
:103680004732369754496398E604930945002A84E3
:103690004E85EFE0DFAF83270900370700201307CF
:1036A0000727DC5714435CD463F3F6001CC351476F
:1036B000B387E702A697D843144718C454C41447E5
:1036C00023A236012324370198435CC8050798C319
:1036D00005456FC0FFE583270900DC575CD5CDBFEA
:1036E0009C436841DC573335F500E5B701458280DE
:1036F00011E50145828001456FC03FE4EFC2BFE1A3
:10370000B707002083A747252A846385A702A167FE
:10371000938707807390073037D60000856537D5CB
:103720000000130686719385F50413050568EF30D4
:10373000F07201A0BC4785E7A1679387078073906B
:10374000073037D60000856537D50000130686712F
:103750009385050513050568EF30507001A0545599
:103760007841FD173CC5E388E6F8D1F7930445009E
:103770002685EFE0DFA17C403D471D8F18CC370741
:1037800000201307072714435CD463F3F6001CC31F
:1037900051473387E702B737002093874732054503
:1037A000BA97D843144718C454C41447C4C204C7B2
:1037B00098435CC8050798C381B775C1EFC2BFD5F0
:1037C00034452A8485E6A167938707807390073084
:1037D00037D60000856537D50000130686719385BE
:1037E000F50913050568EF30706701A07C4163F3AC
:1037F000B700AE8758546302F70A0546639FC608B0
:10380000B706002083A6462563958602A1679387A5
:1038100007807390073037D60000856537D50000E4
:10382000130686719385A50B13050568EF301063A9
:1038300001A0144C5CD463C60600BD46B387F640B5
:103840001CCC51463307C702B73700209386473256
:1038500093844732369754486391E6041309440031
:103860004A85EFE0DF9237070020130707275C54F3
:10387000144363F3F6001CC35147B387E702A697CE
:10388000D843144718C454C4144723A22601232440
:10389000270198435CC8050798C36FC01FCA828080
:1038A000B70700201387472518439387472509C783
:1038B0009443B8460507B8C688438280EFC2BFC5A7
:1038C00037040020EFE01F801304C4291C40B1E737
:1038D000373500201309454B1305454BEFE03F8575
:1038E000373500209304854C1305854CEFE03F8469
:1038F000B707002023A827290146B7070020C145A4
:10390000154523AA9728EFE07FA908C019C5B7D5A8
:10391000000093854577EFF04F8EEFE00FFC6FC00E
:10392000DFC1EFC25FBF4CC108C9AA876362B6029C
:10393000184D158E0545637BE60093854700B70754
:10394000002003A54729EFE0BF8101456FC0FFBEFE
:103950006375D6000545E3FBD5FE93854700B707A1
:10396000002003A50729C5B7EFC2FFBA2A84AE8499
:1039700032890C4CA6864A86A6952285EFF07FFAFE
:1039800019E16FC09FBB1C4C2285BE941C508297CE
:10399000CDB7EFC25FB8B707002083A70729411151
:1039A000AA84DC472EC6C04713054400EFE02FFE73
:1039B00083474402324613F7470019CBA685228578
:1039C000EFF09FFA1C502285829741016FC0FFB62D
:1039D000F99B2302F402FDB7EFC2FFB337040020C6
:1039E0009306042998421C4391EBB7070020938764
:1039F0004729904398C390C26FC03FB45C47FD55C0
:103A00008843EFF01FF9E9BFEFC27FAE356941117E
:103A1000B70A0020B7090020370B0020B70B0020A1
:103A20001309097583A70A29984329CBDC47814CE0
:103A300003AC0700EFF0EFD2EFF0AFD383A78929F3
:103A40002A8493848929130ACB29636CF50288C0E0
:103A500063800C0483A74B2990431336160003257B
:103A60000A00B3058C40EFF00F80EFF0EFEB19ED9B
:103A7000B7E700E0116723A0E72009A8854C014CB7
:103A800055BFEFF07FF580C0EFF00FEA214C0DA09D
:103A90000146E36685FDEFF02FE9A2856285EFF030
:103AA0005FEFEDB79247B2458297824763DD07002B
:103AB00003250A0001468A85EFE01FC225D582470B
:103AC0002245E3C107FE22445C489DE3EFF06FCA44
:103AD0009C40AA8C6374F500EFF01FF0824723A08E
:103AE0009401FD17E366FCFC8A07CA979C43828712
:103AF00013054400EFE0AFE9D1BF834744020C4C0B
:103B0000924693E717002302F4026686B695228553
:103B1000EFF03FE151DD8347440213F7470001CF47
:103B20001C4C924566862285BE95EFF0FFE31C5043
:103B300022858297B5BFF99B2302F402CDBF83474C
:103B40004402F99B2302F402A5B78347440292453D
:103B500093E717002302F4020CCC9DE1A167938741
:103B600007807390073037D6000037D50000130662
:103B7000C6779305903513050568EF30302E01A008
:103B8000E6866686E6952285EFF0BFD915B78347AE
:103B9000440213F7270055F72285EFE0AFBB09BFBA
:103BA000EFC27F97EFF09FD1B707002083A7C72907
:103BB0009DE3A167938707807390073037D6000095
:103BC00037D500001306C6779305901113050568D5
:103BD000EF30D02801A0B7070020B7D50000374547
:103BE00000009387072A3947814613060010938502
:103BF000C57A130585A0EFF04F8045DD6FC0FF93B8
:103C0000EFC2DF8F5D7185451145EF00A07C8545D2
:103C100037050200EF00E07D85451165EF00807BF0
:103C200037140140930700208D4961492C08130582
:103C30000480FC844ECE4AD0A529930700409144CD
:103C40002C0813050480FC8426D09D214C101305FC
:103C50000480231291024ED44AD69929A1474C10D0
:103C6000130504802312F10226D671649121B74412
:103C700000401304042037090C008C001385044015
:103C8000A2C0CAC482C223160104EF00607822D801
:103C9000374401400C18130504804ADC02DA231E65
:103CA0000102EF00E0769307501305497C84280059
:103CB00085475C854AC6C521930760130808FC80C8
:103CC000230921014ACAC129130504800546930529
:103CD0005052EF00100105461385044093055052E1
:103CE000EF003000130504808545EF00207E8545F8
:103CF00013850440EF00807D61616FC07F83EFC258
:103D0000EFFFB7440040AE893289014493840440F8
:103D1000634524014A856FC0BF8193050004268551
:103D2000EF0090007DD9B387890083850700268541
:103D30000504C205C181EF00207ED9BF011122CE4A
:103D400037440140930550521305048002C6EF002A
:103D5000407E0DCD9305505213050480EF003001D5
:103D600013050480EF00C07BB7070020C88503A5BA
:103D7000C72B814670009305B100EFE07F83B24707
:103D800091C7B7E700E0116723A0E72072440561FF
:103D900073002030011122CE374400409305505269
:103DA0001305044002C671271DC99305505213051F
:103DB0000440752F13050440A527B7070020C885C8
:103DC00003A5072C814670009305B100EFE04FFE7C
:103DD000B24791C7B7E700E0116723A0E72072441C
:103DE000056173002030B70700202396A72C4157A8
:103DF000B7E700E02387E7402386E740B7F700E016
:103E000023A0070023A20700814694C70147D8C713
:103E1000370700208325071E1307803E814633D6CF
:103E2000E5027D4790CBD4CB98C38280B7F600E003
:103E3000984ADC4A37F800E0B707002083D7C72C40
:103E4000BA8598463385A702DC4681470326880059
:103E50008326C800E30CC7FEBA976377E600918F0C
:103E60003287E3E5A7FE8280AE97D5BFEFC2AFEA07
:103E7000AA840144636494006FC02FEC1305803E54
:103E8000EFF0DFFA0504FDB701A001A001A001A039
:103E900001A001A001A001A001A001A001A001A01A
:103EA00001A001A001A001A001A001A001A001A00A
:103EB00001A001A001A001A001A001A001A001A0FA
:103EC00001A001A001A001A001A001A001A001A0EA
:103ED00001A001A001A001A001A001A001A001A0DA
:103EE00001A001A001A001A001A001A001A001A0CA
:103EF00001A001A001A001A001A001A001A001A0BA
:103F000001A001A001A001A001A001A001A001A0A9
:103F100001A001A001A001A001A001A001A001A099
:103F200001A001A001A001A001A001A001A001A089
:103F300001A001A001A001A001A001A001A001A079
:103F400001A001A001A097D1FF1F9381A1A917C1D2
:103F500000201301210B17D50000130565D397C569
:103F6000FF1F9385250A1386018263FAC500832209
:103F7000050023A0550011059105E3EAC5FE17C50C
:103F8000FF1F1305252897F5FF1F9385A558637715
:103F9000B500232005001105E36DB5FEFD427390C9
:103FA00002BCFD4273904280B7820000938202807F
:103FB00073A0023097C2FFFF9382420893E232005F
:103FC00073905230EFD01FCC97D2FFFF9382C25034
:103FD000739012347300203014455C415845032817
:103FE000C502D58FD98F1849370600A0D98F5849F7
:103FF000D98F184DD98F584DD98F1851D98F585105
:10400000D98F1855D98F1859B3E70701D98F18419F
:104010000A073A961CC2A1476396F6001C4293E732
:1040200007041CC254598C4E9C42CD8FCC42920541
:10403000CD8F8C46A205CD8FCC46C205CD8F8C4A44
:10404000D44AD205CD8FE206D58F5CC29167631941
:10405000F802145D904E9C42D18FD0421206D18F4F
:1040600090462206D18F904AD44A5206E206D18F5A
:10407000D58FB70600A09386461036971CC3828062
:10408000B70700A0938747103E97B7070010FD17AA
:10409000F5B7B70700A00A053E951C4189C593E70F
:1040A00017001CC18280370710007917F98FD5BF20
:1040B0009C4513F7070113F8F70001C7D84133688F
:1040C000E8008E2113F7F50F39C318418146854E5C
:1040D0003D4F930F800293028004214E3396DE0001
:1040E000B3F8C500631116039398260033131F011C
:1040F0001343F3FF3377E300B318180133E7E80005
:10410000639FF70550C98506E39AC6FD18C11307DA
:10411000F00F6375B70454412146854E3D4F930F10
:10412000800293028004414EB398CE0033F715010C
:104130006392E8021317260001173313EF001343AD
:10414000F3FFB376D3003317E800D98E639DF701F0
:10415000232A15010506E319C6FD54C18280E394A4
:1041600057FA10C94DB7E39757FE23281501DDB75D
:1041700008456D8D3335A00082800CC982804CC902
:10418000828019C20CC982804CC98280B707002086
:1041900023A8A72C8280B70700209387072D94437C
:1041A000182181E63C21920721A894430546639F8C
:1041B000C6023C21103192076314D60093E707F83A
:1041C000B7E600E093F7F70FBA962380F6408546EE
:1041D000935757003397E6005441A5C293870704CD
:1041E0008A07B7E600E0B69798C382808C43894679
:1041F0006391D50214313C216365D6008A06B697D7
:104200005DB79386E6038A06B69793F7F70F920792
:1042100075B790438D46631CD60014313C2163640E
:10422000D6008606E9BF9386C6078606F1BF94438B
:104230009147E39EF6F81C31BDB7938707064DB74B
:10424000371702405C439146B18B6385D700A14686
:104250006382D706B7177A00938707201CC13716E9
:1042600002405C4237070020130707009183BD8B93
:10427000BA9794231C41B3D7D7005CC15442A182A2
:104280009D8ABA969422B3D6D70014C55442AD8203
:104290009D8A36971823B3D7E7005CC55842398307
:1042A000937637001387C18036971823B3D7E70278
:1042B0001CC982805C435843C166C983758FB7F6B9
:1042C000FF1F83A6C670BD8B89071396160163482E
:1042D0000600C54601466392D702C94739A88946F8
:1042E000638FD702BD46638ED702C146638ED70265
:1042F000C54601466393D700C1471DEF37470240CB
:1043000003270780418B05C737177A00130707205B
:10431000B307F7021CC121D61C41858381B7014632
:104320006DBF0546B547D1BF0146BD47F9B7371741
:104330003D0013070790E9BFB7150240D855931603
:10434000F700D85563DF060411833D8B93061700F1
:1043500037177A00130707203357D70218C1D455EF
:10436000A182BD8A8DE295463307D702058318C125
:1043700037170240585714413D8B050733D7E602E3
:1043800018C1184171B785456394B600E546E9BF89
:10439000BD456396B600D1463387E602C9BF89069C
:1043A000E5BF3D8B9306170037177A0013070720E8
:1043B0003357D702F1B799C5371702405C4B5D8D73
:1043C00048CB8280B7170240D84B1345F5FF798D53
:1043D000C8CB828099C5371702401C4F5D8D08CF2E
:1043E0008280B7170240984F1345F5FF798D88CF2B
:1043F000828099C5371702405C4F5D8D48CF82801F
:10440000B7170240D84F1345F5FF798DC8CF82808A
:10441000EFC26F901629F577FD17F58FF621DA2593
:104420007971D58F1EA95625FD779387379FF58F14
:10443000D6212A842EC6D58F9625D58FB625D58F21
:104440005EA55E29C207C18393F7F7CFD98F5EA916
:104450006808EFF0FFDEB747014093870780B24559
:10446000631AF404A25756246547B387E702C206CD
:10447000C186984163D20604060752244206B3D788
:10448000E702130740064186B3D6E702B3F7E70217
:104490009206635506028E0793872703B3D7E70278
:1044A00013F77700B367D700C207C1831EA4456125
:1044B0006FC0AF88925745BF0A07C1B7920793876D
:1044C0002703B3D7E702BD8BD58FF9BF91C55E2512
:1044D0000967D98F5EA582805A25F977FD17F98F74
:1044E000D5BF13F7F50F85471583B395B70063194B
:1044F000F7009307C500984301CED98D8CC3828005
:10450000894693074501E318D7FE93070501E5B7F0
:1045100093C5F5FFF98DDDB793F5F51F4EA18280A8
:104520004A211375F51F82800A216D8D3335A00055
:10453000828013F7F50F85461583B397B600631194
:10454000D7025A25F98F1A2101454207418381CBB1
:104550000545A181B315B5006D8F3335E00082802C
:1045600089466314D7001A29F1BF5A29E1BFA181F6
:104570008547B397B70093C7F7FFC207C1831EA152
:104580008280EFB25FF941118545114502C202C434
:1045900002C6EFF03FE4E177371401407C82C14767
:1045A0003EC64C008D47130504803EC4EFF05FB05B
:1045B000A16513050480EFF05FBC41016FB0FFF708
:1045C000B7070460F917BE234111C207C1837C8776
:1045D000288741018280EFB21FF4B7070460239F50
:1045E000A7FE1545EFF09F84EFF09FFD6FB0FFF43D
:1045F000B737002003D74750B7070460239FE7FE73
:104600008280373600201306C64F3E2637070460E7
:1046100013588500231FF7FE8507C20723100701E3
:10462000C183231FF7FE1375F50F0AA35E2613D669
:10463000850093F5F50F231FF7FE8507C20712A328
:10464000C183231FF7FE0EA38280373500208D65BE
:10465000B70704601305C54F938505601221362105
:10466000239FB7FE930580068EA32E257D16420656
:1046700013881500239FB7FE4208239007001358A4
:104680000801239F07FF1388250042082390070095
:104690004182135808018D05239F07FFC205135857
:1046A000860023900701C181239FB7FE1376F60F82
:1046B00092A35225FD16C20693051600239FC7FE3E
:1046C000C20523900700C181239FB7FE93052600F2
:1046D000C20523900700C182C1810D06239FB7FE4A
:1046E000420693D586008EA34182239FC7FE93F690
:1046F000F60F96A38280EFB21FE2B73700209387B0
:10470000C74F0DE537072003238307001307071E54
:1047100098C33737002A130707C098C70D671307D8
:1047200007B0DAA7EFF07FF26FB03FE10547F8A3DB
:104730003707E00113070732E1BFEFB2DFDDB7074C
:1047400004601307E00B1384E7FF239FE7FE954700
:104750003EA0EF208005B7D7000003A6877B83A685
:10476000C77BEF10D033EF10907E420541812AA025
:1047700085473EA09307F00F3EA0231104002311AC
:1047800004006FB09FDBEFB21FD9B73700209387CB
:10479000C74F9A23A2238145AA8401453304E4022A
:1047A000EFF03FE6EFF0DFE4814737070460639402
:1047B00087006FB09FD806A38507D5BFEFB2BFD2E1
:1047C0001971854513050010EFF0FFBE85451305EF
:1047D0008006EFF03FC0B71401400D449167414A95
:1047E000138504C08A857C8022C252C4F179EFF01F
:1047F0003F8CE14A93873973138504408A857C8016
:1048000056C422C2EFF0DF8A37250140930700F833
:104810008A85130505807C8056C422C2EFF05F892B
:104820001385044005698A852310210156C422C2DC
:10483000EFF01F8813850440130909808A8523102F
:10484000210122C2056952C4EFF09F8693050980B9
:1048500013850440EFF0BF92BD473ECA9167BED8B2
:104860007C00BEDCC8003C10054BBEDE22D8CAD49A
:104870005AC602C802CC02D202D402D602DA02DC44
:1048800002DE82C082C282C482C6D2C882CA82CEFE
:1048900082CC82D082D282D682DAEFF0EFF38545E5
:1048A0000145EFF00FFF13052003EFF02FDCB734C5
:1048B000002001451389C44FEFF0FFD12312A90056
:1048C00037040460930A300D231F54FFEFF05FCFCD
:1048D0002312A900EFF0DFCE2312A900EFF05FCE84
:1048E00022052312A900EFF0BFCD8357490093841E
:1048F000C44F5D8D2312A900231F54FFEFF05FCC3E
:104900002312A900EFF0DFCB2312A900EFF05FCB59
:1049100022052312A900EFF0BFCA835749005D8D1D
:1049200042054181A5672312A900938717346314B8
:10493000F5006F10402E9147231FF4FEEFF05FC883
:10494000CAA0EFF0FFC7CAA0EFF09FC72205CAA018
:10495000EFF01FC7DE205D8D42054181A167CAA02F
:10496000938727556318F5009D6793879778DEA096
:104970006F10602A9D6B93879B786314F5006F100E
:1049800080299307400D231FF4FEEFF07FC3CAA0D8
:10499000EFF01FC3CAA0EFF0BFC22205CAA0EFF01C
:1049A0003FC2DE2015695D8D42054181CAA0930793
:1049B00009316314F5006F100026231F54FFEFF038
:1049C0003FC0CAA0EFF0DFBFCAA0EFF07FBF220553
:1049D000CAA0EFF0FFBEDE20938B6B795D8D4205A0
:1049E0004181CAA0631475016F10E022FD77231F77
:1049F000F4FE130AE4FF130750052311EA0013879E
:104A00001700231FE4FE1307A00A2311EA001387EF
:104A10002700231FE4FE130720052311EA00138754
:104A20003700231FE4FE21472311EA009107231FCB
:104A3000F4FE23116A0193870950231FF4FEEFF05F
:104A40003FB82205CAA093891950231F34FFEFF005
:104A50003FB7DE20930909515D8DCAA01545EFF0DF
:104A6000EFC0DE20638437016F10402137040460FB
:104A70007D789307E4FF231F04FF930E50052391D5
:104A8000D70113071800231FE4FE1307A00ABAA3D7
:104A900093062800231FD4FE93062005B6A3130611
:104AA0003800231FC4FE214E2391C701130648007E
:104AB000231FC4FE0546B2A36D77231FE4FEB5464F
:104AC000B6A393051700231FB4FEB6A393052700D2
:104AD000231FB4FE6D75B6A393050560130840034C
:104AE000231FB4FE2391070193051760231FB4FE13
:104AF0002391070193052760231FB4FE239107012B
:104B000093050510231FB4FEB6A393051510231FAC
:104B1000B4FEB6A393052710231FB4FEB6A39305D6
:104B20000570231FB4FE2391070193051570231F01
:104B3000B4FE2391070193062770231FD4FE23910F
:104B4000070193060720231FD4FE23910700930635
:104B50001720231FD4FE2391070093062720231F2D
:104B6000D4FE71732391070093050380231FB4FEC5
:104B700093064002B6A393051380231FB4FEB6A389
:104B800093052380231FB4FE7175B6A3930505F02A
:104B9000231FB4FEB2A393050730231FB4FEBD4507
:104BA000AEA393081730231F14FFAEA3930827303A
:104BB000231F14FFAEA393050590231FB4FE23917A
:104BC000070193051590231FB4FE23910701930558
:104BD0002590231FB4FE2391070193050750231F3F
:104BE000B4FE2391C70193051750231FB4FE2391F0
:104BF000C70113072750231FE4FE13070520239145
:104C0000C7018D45231FE4FEAEA3130705A0231F94
:104C1000E4FEB6A3130715A0231FE4FEB6A31307F3
:104C200025A0231FE4FEB6A3930F03C0231FF4FFA8
:104C300023910700930F13C0231FF4FF130780076E
:104C4000BAA3930F23C0231FF4FF239107009306F9
:104C500005D0231FD4FE23910700930615D0231FF0
:104C6000D4FEBAA3130725D0231FE4FE2391070027
:104C7000130705E0231FE4FE23910700130715E047
:104C8000231FE4FE13074006BAA3757793060710A7
:104C9000231FD4FE239107009306171093083003B7
:104CA000231FD4FE2391170193062710231FD4FE40
:104CB0002391070093063710231FD4FE2391070189
:104CC00093064710231FD4FE239107009306571025
:104CD000231FD4FE130DA0032391A7019306671091
:104CE000231FD4FE2391070093067710231FD4FEC1
:104CF000930CA0042391970193068710231FD4FEE1
:104D00002391070093069710231FD4FE130CC005B0
:104D1000239187019306A710231FD4FE2391070038
:104D20009306B710231FD4FE930B1008239177012D
:104D30009306C710231FD4FE239107009306D710B4
:104D4000231FD4FE130B600A239167019306E7101B
:104D5000231FD4FE239107009306F710231FD4FED0
:104D6000930A500E2391570193060711231FD4FE77
:104D7000B2A393061711231FD4FE4D4A2391470176
:104D800093062711231FD4FEB2A39306371193096C
:104D90004005231FD4FE2391370193064711231F9B
:104DA000D4FE93065711B2A313092008231FD4FE83
:104DB0002391270193066711231FD4FEB2A3930604
:104DC0007711231FD4FE9300A00C239117009306A4
:104DD0008711231FD4FE8946B6A313039711231FFF
:104DE00064FE239107001303A711231F64FEB6A3DB
:104DF0001303B711231F64FEB2A31303C711231FAC
:104E000064FEB6A31303D711231F64FE2391070189
:104E10001303E711231F64FEB6A31303F711231F27
:104E200064FE930370062391770013030712231F78
:104E300064FEB6A313031712231F64FE93024008F7
:104E40002391570013032712231F64FEB6A31303F5
:104E50003712930F400A231F64FE2391F7011303B7
:104E60004712231F64FE130F700BB6A313035712D0
:104E7000231F64FE2391E70113036712231F64FEBF
:104E8000B6A313037712231F64FE930EF00C239135
:104E9000D70113038712231F64FEB6A313039712CF
:104EA000231F64FE130EE00D2391C7011303A71205
:104EB000231F64FEB6A31303B712231F64FE13035C
:104EC000200F23916700930DC712231FB4FFB6A3D1
:104ED000930DD712231FB4FF930DE00F2391B70159
:104EE000930DE712231FB4FFAEA3930DF712231FF8
:104EF000B4FFC14D2391B701930D0713231FB4FFD6
:104F0000AEA3930D1713231FB4FF23911701930D25
:104F10002713231FB4FFAEA3930D3713231FB4FF32
:104F2000930DD0062391B701930D0720231FB4FFE3
:104F300023910700930D1720231FB4FF930D272003
:104F400023911701231FB4FF23910700930D3720EE
:104F5000231FB4FF23910701930D4720231FB4FFA4
:104F600023910700930D5720231FB4FF2391A7011E
:104F7000930D6720231FB4FF23910700930D772023
:104F8000231FB4FF23919701930D8720231FB4FFA4
:104F900023910700930D9720231FB4FF23918701CE
:104FA000930DA720231FB4FF23910700930DB72073
:104FB000231FB4FF23917701930DC720231FB4FF54
:104FC00023910700930DD720231FB4FF239167017E
:104FD000930DE720231FB4FF23910700930DF720C3
:104FE000231FB4FF23915701930D0721231FB4FF03
:104FF000B2A3930D1721231FB4FF23914701930DF3
:105000002721231FB4FFB2A3930D3721231FB4FF21
:1050100023913701930D4721231FB4FFB2A3930DB2
:105020005721231FB4FF23912701930D6721231FCD
:10503000B4FFB2A3930D7721231FB4FF2391170070
:10504000930D8721231FB4FFB6A3930D9721231F30
:10505000B4FF23910700930DA721231FB4FFB6A32C
:10506000930DB721231FB4FFB2A3930DC721231FB4
:10507000B4FFB6A3930DD721231FB4FF23910701DB
:10508000930DE721231FB4FFB6A3930DF721231F30
:10509000B4FF23917700930D0722231FB4FFB6A31B
:1050A000930D1722231FB4FF23915700930D27223E
:1050B000231FB4FF930D3722B6A3231FB4FF239100
:1050C000F701930D4722231FB4FFB6A3930D572278
:1050D000231FB4FF2391E701930D6722231FB4FF21
:1050E000B6A3930D7722231FB4FF2391D701930D0D
:1050F0008722231FB4FFB6A3930D9722231FB4FF6B
:105100002391C701930DA722231FB4FFB6A3930DCC
:10511000B722231FB4FF23916700930DC722231FDB
:10512000B4FFB6A3930DD722231FB4FF930DE00F56
:105130002391B701930DE722231FB4FFAEA3930D74
:10514000F722231FB4FFC14D2391B701930D07230D
:10515000231FB4FFAEA3930D1723231FB4FF239186
:105160001701930D2723231FB4FFAEA3930D3723FD
:10517000231FB4FF930DD0062391B701930D073081
:10518000231FB4FF23910700930D1730231FB4FF93
:1051900023911701930D2730231FB4FF239107009C
:1051A000930D3730231FB4FF23910701930D473030
:1051B000231FB4FF23910700930D5730231FB4FF23
:1051C0002391A701930D6730231FB4FF239107009C
:1051D000930D7730231FB4FF23919701930D8730F0
:1051E000231FB4FF23910700930D9730231FB4FFB3
:1051F00023918701930DA730231FB4FF239107004C
:10520000930DB730231FB4FF23917701930DC7305F
:10521000231FB4FF23910700930DD730231FB4FF42
:1052200023916701930DE730231FB4FF23910700FB
:10523000930DF730231FB4FF930D073123915701CE
:10524000231FB4FFB2A3930D1731231FB4FF239183
:105250004701930D2731231FB4FFB2A3930D3731BC
:10526000231FB4FF23913701930D4731231FB4FF50
:10527000B2A3930D5731231FB4FF23912701930D40
:105280006731231FB4FFB2A3930D7731231FB4FFFF
:1052900023911700930D8731231FB4FFB6A3930DFD
:1052A0009731231FB4FF23910700930DA731231FCC
:1052B000B4FFB6A3930DB731231FB4FFB2A3930D70
:1052C000C731231FB4FFB6A3930DD731231FB4FFFB
:1052D00023910701930DE731231FB4FFB6A3930D6C
:1052E000F731231FB4FF23917700930D0732231F5B
:1052F000B4FFB6A3930D1732231FB4FF23915700B9
:10530000930D2732231FB4FFB6A3930D3732231F0B
:10531000B4FF2391F701930D4732231FB4FFB6A3C7
:10532000930D5732231FB4FF2391E701930D67328A
:10533000231FB4FFB6A3930D7732231FB4FF23912D
:10534000D701930D8732231FB4FFB6A3930D973275
:10535000231FB4FF2391C701930DA732231FB4FF6E
:10536000B6A3930DB732231FB4FF23916700930DAB
:10537000C732231FB4FFB6A3930DD732231FB4FF48
:10538000930DE00F2391B701930DE732231FB4FF74
:10539000AEA3930DF732231FB4FFC14D2391B70184
:1053A000930D0733231FB4FF930D1733AEA3231FB1
:1053B000B4FF23911701930D2733231FB4FFAEA32E
:1053C000930D3733231FB4FF930DD0062391B701FC
:1053D000930D0740231FB4FF23910700930D17403F
:1053E000231FB4FF23911701930D2740231FB4FF00
:1053F00023910700930D3740231FB4FF239107012A
:10540000930D4740231FB4FF23910700930D57408E
:10541000231FB4FF2391A701930D6740231FB4FFFF
:1054200023910700930D7740231FB4FF2391970129
:10543000930D8740231FB4FF23910700930D9740DE
:10544000231FB4FF23918701930DA740231FB4FFAF
:1054500023910700930DB740231FB4FF23917701D9
:10546000930DC740231FB4FF23910700930DD7402E
:10547000231FB4FF23916701930DE740231FB4FF5F
:1054800023910700930DF740231FB4FF2391570189
:10549000930D0741231FB4FFB2A3930D1741231FA0
:1054A000B4FF23914701930D2741231FB4FFB2A3FB
:1054B000930D3741231FB4FF23913701930D4741CB
:1054C000231FB4FFB2A3930D5741231FB4FF2391B1
:1054D0002701930D6741231FB4FFB2A3930D7741BA
:1054E000231FB4FF23911700930D8741231FB4FF9F
:1054F000B6A3930D9741231FB4FF23910700930D8B
:10550000A741231FB4FFB6A3930DB741231FB4FFD8
:10551000B2A3930DC741231FB4FFB6A3930DD74188
:10552000231FB4FF930DE74123910701231FB4FF0D
:10553000B6A3930DF741231FB4FF23917700930D7A
:105540000742231FB4FFB6A3930D1742231FB4FFD6
:1055500023915700930D2742231FB4FFB6A3930D49
:105560003742231FB4FF2391F701930D4742231FB6
:10557000B4FFB6A3930D5742231FB4FF2391E70155
:10558000930D6742231FB4FFB6A3930D7742231FE9
:10559000B4FF2391D701930D8742231FB4FFB6A315
:1055A000930D9742231FB4FF2391C701930DA74288
:1055B000231FB4FFB6A3930DB742231FB4FF23915B
:1055C0006700930DC742231FB4FFB6A3930DD742C4
:1055D000231FB4FF930DE00F2391B701930DE74212
:1055E000231FB4FFAEA3930DF742231FB4FFC14D99
:1055F0002391B701930D0743231FB4FFAEA3930D6F
:105600001743231FB4FF23911701930D2743231F33
:10561000B4FFAEA3930D3743231FB4FF930DD00601
:105620002391B701930D0750231FB4FF2391070067
:10563000930D1750231FB4FF23911701930D27508B
:10564000231FB4FF23910700930D3750231FB4FF8E
:1056500023910701930D4750231FB4FF23910700A7
:10566000930D5750231FB4FF2391A701930D67504B
:10567000231FB4FF23910700930D7750231FB4FF1E
:1056800023919701930D8750231FB4FF23910700A7
:10569000930D9750231FB4FF23918701930DA750BB
:1056A000231FB4FF930DB75023910700231FB4FFAE
:1056B00023917701930DC750231FB4FF2391070057
:1056C000930DD750231FB4FF23916701930DE7502B
:1056D000231FB4FF23910700930DF750231FB4FF3E
:1056E00023915701930D0751231FB4FFB2A3930DCC
:1056F0001751231FB4FF23914701930D2751231FF7
:10570000B4FFB2A3930D3751231FB4FF2391370188
:10571000930D4751231FB4FFB2A3930D5751231F7D
:10572000B4FF23912701930D6751231FB4FFB2A348
:10573000930D7751231FB4FF23911700930D8751C9
:10574000231FB4FFB6A3930D9751231FB4FF2391DA
:105750000700930DA751231FB4FFB6A3930DB751B4
:10576000231FB4FFB2A3930DC751231FB4FFB6A3E9
:10577000930DD751231FB4FF23910701930DE751D8
:10578000231FB4FFB6A3930DF751231FB4FF23913A
:105790007700930D0752231FB4FFB6A3930D175242
:1057A000231FB4FF23915700930D2752231FB4FFEB
:1057B000B6A3930D3752231FB4FF2391F701930D26
:1057C0004752231FB4FFB6A3930D5752231FB4FFB4
:1057D0002391E701930D6752231FB4FFB6A3930DE6
:1057E0007752231FB4FF2391D701930D8752231FB4
:1057F000B4FFB6A3930D9752231FB4FF2391C701A3
:10580000930DA752231FB4FFB6A3930DB752231FC6
:10581000B4FF930DC75223916700231FB4FFB6A3B3
:10582000930DD752231FB4FF930DE00F2391B701BF
:10583000930DE752231FB4FFAEA3930DF752231F1E
:10584000B4FFC14D2391B701930D0753231FB4FF3C
:10585000AEA3930D1753231FB4FF23911701930D8C
:105860002753231FB4FFAEA3930D3753231FB4FF59
:10587000930DD0062391B701930D0760231FB4FF4A
:1058800023910700930D1760231FB4FF2391170185
:10589000930D2760231FB4FF23910700930D3760FA
:1058A000231FB4FF23910701930D4760231FB4FF0B
:1058B00023910700930D5760231FB4FF2391A70185
:1058C000130D6760231FA4FF23910700130D77605A
:1058D000231FA4FF23919701930C8760231F94FF3C
:1058E00023910700930C9760231F94FF2391870156
:1058F000130CA760231F84FF23910700130CB760CC
:10590000231F84FF23917701930BC760231F74FF2C
:1059100023910700930BD760231F74FF2391670126
:10592000130BE760231F64FF23910700130BF7603D
:10593000231F64FF23915701930A0761231F54FF1C
:10594000B2A3930A1761231F54FF23914701130A3F
:105950002761231F44FFB2A3130A3761231F44FFAB
:105960002391370193094761231F34FFB2A39309A1
:105970005761231F34FF2391270113096761231FF8
:1059800024FFB2A313097761231F24FF239117007B
:1059900093008761231F14FE93009761B6A3231F12
:1059A00014FE239107009300A761231F14FEB6A3E2
:1059B0009300B761231F14FEB2A39300C761231F96
:1059C00014FEB6A39300D761231F14FE2391070191
:1059D0001308E761231F04FFB6A31308F761231F11
:1059E00004FF2391770013080762231F04FFB6A367
:1059F00013081762231F04FF23915700130827621F
:105A0000231F04FFB6A313083762231F04FF23914B
:105A1000F70113084762231F04FFB6A31308576258
:105A2000231F04FF2391E70113086762231F04FF6C
:105A3000B6A313087762231F04FF2391D70113082D
:105A40008762231F04FFB6A313089762231F04FF76
:105A50002391C7011308A762231F04FFB6A31308ED
:105A6000B762231F04FF239167001308C762231F37
:105A700004FFB6A31308D762231F04FF930DE00FA2
:105A80002391B7011308E762231F04FFAEA3130895
:105A9000F762231F04FFC14D2391B7011308076369
:105AA000231F04FFAEA313081763231F04FF2391D2
:105AB000170113082763231F04FFAEA313083763DE
:105AC000231F04FF930DD0062391B7017D78231F78
:105AD00004FF930E50052391D701930F1800231F45
